:020000040800F2
:10000000781D0010D5020008B1290008F528000865
:10001000AD29000815180008512D00080000000047
:10002000000000000000000000000000912A00080D
:100030001918000800000000212A0008092B0008F8
:10004000EF020008EF020008EF020008EF020008CC
:10005000EF020008EF020008EF020008EF020008BC
:10006000EF020008EF020008EF020008EF020008AC
:10007000EF020008EF020008EF020008EF0200089C
:10008000EF020008EF020008EF020008EF0200088C
:10009000EF020008EF020008EF020008EF0200087C
:1000A000EF020008EF020008EF020008EF0200086C
:1000B000EF020008EF020008EF020008EF0200085C
:1000C000EF020008EF020008EF020008EF0200084C
:1000D000EF020008EF020008EF020008EF0200083C
:1000E000EF020008EF020008EF020008EF0200082C
:1000F000EF020008EF020008EF020008EF0200081C
:10010000EF020008EF020008EF020008EF0200080B
:10011000EF020008EF020008EF020008EF020008FB
:10012000EF020008EF020008EF020008EF020008EB
:10013000EF020008EF020008EF020008EF020008DB
:10014000EF020008EF020008EF020008EF020008CB
:10015000EF020008EF020008EF020008EF020008BB
:10016000EF020008EF020008EF020008EF020008AB
:10017000EF020008EF020008EF0200080000000094
:10018000EF020008EF02000800F002F800F092F819
:100190000AA090E8000C82448344AAF10107DA45E2
:1001A00001D100F087F8AFF2090EBAE80F0013F0A2
:1001B000010F18BFFB1A43F001031847EC69000058
:1001C0001C6A0000103A24BF78C878C1FAD85207D8
:1001D00024BF30C830C144BF04680C6070470000C1
:1001E0000023002400250026103A28BF78C1FBD840
:1001F000520728BF30C148BF0B6070476E2900F01E
:10020000F982702900F05584662906F00A83652971
:1002100006F00783672906F00483612906F003834B
:1002200003681B0A28BF41F08001692900F0A682FB
:10023000642900F0A382752900F0A0826F2900F0E4
:10024000E383782900F02184E92900F07D83E42903
:1002500000F07A83F52900F07783EF2900F0E0833E
:10026000F82900F020840368DB0928BF41F08001F1
:10027000632901F05381732901F05881E32901F0CA
:100280006381F32901F06881002070471FB506F0F3
:10029000BBFA01F0BBF904000020002106F09EFA31
:1002A000401C60600020002106F082FAE0601FBD63
:1002B00010B510BD01F07CF91146FFF7E7FF03F020
:1002C00031FC01F059FA03B4FFF7F2FF03BC02F06E
:1002D00089FD00000948804709480047FEE7FEE71E
:1002E000FEE7FEE7FEE7FEE7FEE7FEE7FEE7FEE7E6
:1002F00004480549054A064B70470000012C0008D8
:100300008901000878050010781D0010780D001094
:10031000780D0010704753EA020C00F069802DE957
:10032000F04B4FF00006002B1FBFB3FA83F503FA22
:1003300005F424FA05F65E4012BF1643B2FA82F5C0
:1003400002FA05F4C5F120051EBF22FA05FC44EAB5
:100350000C04203556EA044C4FEA144418BF641CC0
:100360004FF000084FF00009904271EB030C39D3B5
:10037000002919BFB1FA81F701FA07F6B0FA80F740
:1003800000FA07F6C7F120071EBF20FA07FC46EA6D
:100390000C062037B6FBF4FCA7EB0507103F07F06F
:1003A0001F0BCBF120062CFA06F60CFA0BFB44BF10
:1003B000B3460026202FA4BF5E464FF0000B5BEA39
:1003C000060C08BF4FF0010B19EB0B0948EB0608B0
:1003D000ABFB027C06FB02CC0BFB03CCC01B71EB1E
:1003E0000C01C1E70B46024641464846BDE8F08B8A
:1003F00013B5084318BF4FF0FF300146AFF300803C
:10040000BDE81C40704700000FB4044910B503AAB2
:10041000029800F029FA10BC5DF814FBA800001047
:100420000FB47CB50C0009AA009001D02044401EF6
:10043000084B7B4469460190089800F0F4F90546A2
:100440001CB10020694600F001FA28467CBC5DF82A
:1004500014FB0000210400007CB51D4616460C006C
:10046000009001D02044401E074B7B442A46694639
:100470000190304600F0D7F905461CB100206946CE
:1004800000F0E4F928467CBDE903000030B50546DC
:100490000B462A4613F8014B12F8010B08B1A04293
:1004A000F8D01CB1002802D06D1CF1E7284630BD01
:1004B00010B5431C02E010F8011B71B18107FAD19D
:1004C0004FF0013202C88C1A8C4314EAC211F9D0E1
:1004D000C01A0A0603D0C01E10BDC01A10BD0A04FF
:1004E00001D0801E10BD0902FCD0401E10BD40EAA4
:1004F000010370B59B072ED14FF00136042A2AD391
:1005000008C810C99D1B9D43121F15EAC61517D0B8
:10051000D8B2E1B2401A50EA056110D198B2A1B246
:10052000401A50EA05410AD123F07F4024F07F4170
:10053000401A50EA052102D1180EA0EB146070BDDC
:10054000A342DBD018BA21BA884201D9012070BD7C
:100550004FF0FF3070BD0AB9002070BD10F8013BAC
:1005600011F8014B63B1A3420AD1521E08D010F812
:10057000013B11F8014B1BB1A34201D1521EEDD139
:10058000181B70BD032A40F2308010F0030C00F0FD
:10059000158011F8013BBCF1020F624498BF11F8BD
:1005A00001CB00F8013B38BF11F8013BA2F1040276
:1005B00098BF00F801CB38BF00F8013B11F00303EE
:1005C00000F04683083AC0F0088051F8043B083A2E
:1005D00051F804CBA0E80810F5E7121D5CBF51F8F4
:1005E000043B40F8043BAFF30080D20724BF11F86E
:1005F000013B11F801CB48BF11F8012B24BF00F8D3
:10060000013B00F801CB48BF00F8012B704702F016
:10061000FF0343EA032242EA024200F024B84FF00B
:1006200000020429C0F0128010F0030C00F01B80BF
:10063000CCF1040CBCF1020F18BF00F8012BA8BFCD
:1006400020F8022BA1EB0C0100F00DB85FEAC17C91
:1006500024BF00F8012B00F8012B48BF00F8012B44
:1006600070474FF0000200B5134694469646203975
:1006700022BFA0E80C50A0E80C50B1F12001BFF45B
:10068000F7AF090728BFA0E80C5048BF0CC05DF8C1
:1006900004EB890028BF40F8042B08BF704748BF0F
:1006A00020F8022B11F0804F18BF00F8012B704783
:1006B000704770477047704770B504468569006899
:1006C000C10601D5302600E02026C00707D070BD46
:1006D000D4E9012130469047206A401C20626D1EFB
:1006E000F6D570BD70B5044685690078C00707D19E
:1006F00070BDD4E9012120209047206A401C20626F
:100700006D1EF6D570BD09684A0501D540B2704727
:10071000C905FCD500B2704709684A0501D5C0B2C9
:100720007047C905FCD580B2704770B50C460546C8
:10073000012A05D02878800600D5EA69002302E066
:10074000012305E05B1C934202D2E05C0028F9D152
:10075000A869E618C01AA861286A184428622846C1
:10076000FFF7AAFF04E0D5E9012114F8010B904737
:10077000B442F8D32846FFF7B5FF70BD2DE9F0412C
:100780000646002410687529314616A510D0FFF7DB
:10079000BAFF002802DA404213A507E031688A0751
:1007A00001D512A502E0490704D511A5012401E0F5
:1007B000FFF7B2FF00210A2206F1240709E0B0FB8F
:1007C000F2FCB0FBF2F302FB1C0030307854184608
:1007D000491C0028F3D123462A463046BDE8F041A3
:1007E00000F0ADBA000000002D0000002B0000005A
:1007F0002000000011680268006A530501D50870E6
:100800000AE0D30501D5088006E0130603D5C21718
:10081000C1E9000200E008600120704701694A1C3C
:1008200002610878704700B58FB0CDE90131002131
:10083000059105497944CDE903101146684600F059
:1008400043F90FB000BD0000E5FFFFFF0A6802F8A2
:10085000010B0A607047D1E900239A4202D2531C6F
:100860000B60107070470000074B70B50D467B445D
:10087000FFF7D9FF0446284600F072FE10B14FF092
:10088000FF3070BD204670BD173100002DE9FF5FBD
:1008900015468A460446DFF8AC80F8440027D8E9BC
:1008A00000103E46CDE9001010E03AF816106A46F6
:1008B00002A800F059FE411C07D02178890603D513
:1008C000E269391891420DD80744761C20788006D9
:1008D00002D5E069B84205DDAE42E6DB3AF8160023
:1008E0000028E2D1A069C01BA0612046FFF7E4FE0A
:1008F000D8E90010CDE90010002017E03AF81810F0
:100900006A4602A800F030FEB0F1FF3F81460BD0EE
:1009100000250DF1080B05E0D4E901211BF80500C5
:1009200090476D1C4D45F7D308F10100B042804659
:10093000E4DB206A384420622046FFF7D3FEBDE89E
:10094000FF9F00008E5F00002DE9F0418046D21D20
:1009500022F007020025D2E90002F52915A614D0DD
:10096000011E72F1000106DA0023D0EB030063EBF5
:10097000020211A608E0D8F800108B0701D50FA6D7
:1009800002E0490701D50EA601251146002408F111
:10099000240704E000F08EF930323A55641C50EA26
:1009A0000102F7D12B46324621464046BDE8F041D0
:1009B00000F0C5B9000000002D0000002B00000071
:1009C0002000000030B4002100F1240408E002F00F
:1009D0000705D208303542EA4372DB086554491CEA
:1009E00052EA0305F3D10468002310A2250708D5B5
:1009F00004F020040C4304D0C46901230CA2641E3B
:100A0000C46130BC00F09BB910B5044621461068A3
:100A1000FFF782FE02462046BDE810400023D1E7E2
:100A2000D21D22F00701D1E90023CBE7000000002E
:100A300030000000F0B40D460188090502D5214CB4
:100A40007C4402E01F4C7C440E34002100F124065B
:100A500008E002F00F071209E75D42EA03721B0982
:100A60007754491C52EA0307F3D102780023120796
:100A700004D5702D06D009B1022311342246F0BCF2
:100A800000F05DB901231034F8E770B504460D4657
:100A900021461068FFF740FE024629462046BDE881
:100AA00070400023C6E7D21D22F00703D3E90023DC
:100AB000C0E70368126843F0200303600823C361A2
:100AC0000023B7E7F05D00002DE9F05F894604469A
:100AD0004FF0000ADFF874B1FB44C0F820A02046B4
:100AE000E1688847002874D0252806D0D4E9012180
:100AF0009047206A401C2062F1E700265F462046AE
:100B0000E16888472028054607DB312D05D2781992
:100B100010F8200C08B10643F1E7B00701D526F024
:100B20000406C4F81CA00027C4F818A02A2D09D078
:100B3000284605F035FE38B304EB8708303DC8F889
:100B4000185019E059F8041B204604EB8702916104
:100B5000E1688847012F054618D1E069002820DAAE
:100B600026F020061DE0D8F8180000EB800005EB09
:100B700040003038C8F818002046E168884705462C
:100B800005F00EFE0028EED1012F0AD02E2D08D13F
:100B90002046E16888477F1C0546022F46F0200664
:100BA000C4DBA069002803DA404246F00106A061D8
:100BB000F00701D026F010066C2D0BD0682D09D05F
:100BC0004C2D39D06A2D35D0742D35D07A2D33D0B7
:100BD00016E038E0E1682F4620468847B8420546CF
:100BE00009D16C2F26D04FF48060E168064320467F
:100BF0008847054604E06C2F1AD04FF480700643F6
:100C00000DB3A5F14100192802D8203546F400663D
:100C10004A462946204626604E46FFF7EFFA80B145
:100C200001280BD0F61D26F0070000F1080956E751
:100C30004020E4E78020D8E70020D6E706F1040949
:100C40004DE7284652E7206ABDE8F09F805D00002E
:100C500010B5203AC0F00B80B1E81850A0E8185049
:100C6000B1E81850A0E81850203ABFF4F5AF5FEA99
:100C7000027C24BFB1E81850A0E8185044BF18C93E
:100C800018C0BDE810405FEA827C24BF51F8043BE5
:100C900040F8043B08BF7047D20728BF31F8023B39
:100CA00048BF11F8012B28BF20F8023B48BF00F8CD
:100CB000012B704730B5B0F10A0271F100034FEA21
:100CC000900E4EEA817EB0EB0E0061EB91014FEA8F
:100CD000101E4EEA017E10EB0E0041EB11114FEA9F
:100CE000102E4EEA016E10EB0E0041EB11214FEA7F
:100CF000104E4EEA014E10EB0E0041EB1141401830
:100D000041F100014FEAD00040EA41704FEAD101C1
:100D10004FEA810444EA907410EB800544EB01042F
:100D20006D1944EB0404521BA3414FF0000348BF6C
:100D30000A3200D530BD401C41F1000130BD2DE923
:100D4000F0470D4699469246044600F12408016892
:100D5000880604D5E06921F01001216000E001203F
:100D6000A84201DD471B00E00027A1697A1902EBC8
:100D70000900081AA0612078C00602D42046FFF7B7
:100D80009BFC002608E0D4E901211AF806009047F0
:100D9000206A401C761C20624E45F4DB2078C00699
:100DA0000AD52046FFF788FC06E0D4E9012130206F
:100DB0009047206A401C2062381EA7F10107F4DC2E
:100DC00007E0D4E9012118F805009047206A401C8B
:100DD0002062281EA5F10105F3DC2046FFF782FC06
:100DE0002078000602D50220BDE8F0870120FBE74D
:100DF0002DE9FF4F0C461E464FF0FF378BB0D2E96E
:100E00000001DDF860800A908A46C1F30A5505B9F1
:100E10003D46002108464FF00000BAF1000F00F4F3
:100E2000400005DA00EB80004FF4400101EA500079
:100E30004FEA9059B9F1010F00DDB9460A9850EA1E
:100E40004A000ED044F61050A5F2FF3545432F144A
:100E5000B8F1000F1ED07542291E1EDDC9F1000237
:100E60001CE0B8F1010F4FF0000001D0302103E089
:100E7000F24305E02154401CB042FBDB3046002227
:100E8000002121540B99C1F80880C1E900200FB05E
:100E9000BDE8F08FBD1B6D1CDEE74A4600DA6942F3
:100EA00006A800F0F7FB06AB93E8070003AB83E866
:100EB000070050460A9905F092F88DE80700A0F562
:100EC00000501F3800900398002D0ADD42F21F01E8
:100ED0004A460844002303A90390684605F0FCFA3B
:100EE00009E0A0F500504A461F38002303A90390EB
:100EF000684605F006FB8DE807000004000C03D0EF
:100F00004FF0FF30410800E01046B8F1000F03D069
:100F10000022009215461EE0751E05D4FFF7CAFE9A
:100F2000303262556D1EF9D5B3460122084302D016
:100F300000227F1C04E02078302801D100227F1E8F
:100F4000002A099784D01DE0112D07DAFFF7B2FEC1
:100F5000303262556D1C50EA0102F5D1084302D0CF
:100F60000098C8B10EE00021681E05E0235C625CB9
:100F700063542254401E491C8142F7DBAB46A81B38
:100F8000401E0990002004F80B000B98099AC0F845
:100F90000880C0E9002B7AE711264FF0000857E7D8
:100FA0002DE9F04F88460446D21D22F0070191B08A
:100FB000D1E90001CDE90A0105F0DAFB02460B9800
:100FC000C00F01D02D2007E02068810701D52B201C
:100FD00002E0202101EAC000032A099001D0072A7B
:100FE00005DB03464146204600F014FB0BE1207868
:100FF000800601D5E06900E00620B8F1650F814662
:1010000006D0B8F1660F18D0B8F1670F70D131E093
:101010000020B9F1110F009001DB112301E009F16B
:1010200001030AAA01A90CA8FFF7E2FEDDE90C7092
:10103000002609F10105834647E001204B46009058
:101040004FF000470AAA01A90CA8FFF7D1FEDDE97D
:101050000DB00C995D46002610B909F101000D187C
:10106000B9EB050003D4C0F1FF3609F10105A5EB8A
:1010700009002BE0B9F1010F01DA4FF0010900205E
:10108000B9F1110F0090484601DD112300E003463D
:101090000AAA01A90CA8FFF7ABFEDDE90C704D46CA
:1010A00000268346207800070AD4AB4500DA5D4667
:1010B00001A8012D04DD411911F8011C302907D0C8
:1010C0004F4502DA17F1040F04DA012082460FE0DF
:1010D0006D1EEEE7002F02DCED1B3E4403E0781CA2
:1010E000A84200DD7D1CB81B00F1010A4FF000474B
:1010F0002078000703D4AA4501DB4FF0FF3A002116
:10110000B7F1004F0DF143088DF8431024D00220B1
:101110002B23002F01DA7F422D230A21021EA0F18A
:10112000010000DC5FB197FBF1FC97FBF1F201FBE2
:101130001C7C17460CF1300C08F801CDEEE7A8F145
:10114000010003702188090501D5452100E06521D2
:10115000A0F1010800F8011C09980FA9A1EB0807EC
:10116000FF1D00B10120411901EBEA70A16938446B
:10117000081A401EA0612078C00602D42046FFF75E
:101180009BFA099828B1D4E901219047206A401CB4
:1011900020622078C00622D52046FFF78DFA1EE097
:1011A000002E04DBB34502DD01A8805D00E03020A5
:1011B000D4E901219047206A401C2062761CAAF1E4
:1011C00001005FEA000A0AD100F020FAC068016855
:1011D000405CD4E901219047206A401C2062281E0F
:1011E000A5F10105DCDC07E0D4E9012118F8010BC9
:1011F0009047206A401C2062381EA7F10107F3DCEB
:101200002046FFF76FFA032011B041E62DE9F04FB9
:1012100004460D46D21D22F0070089B0D0E90097A0
:101220004846394605F0A4FA0246F80F01D02D23AE
:1012300007E02068810701D52B2302E0202101EA85
:10124000C0038DF820300BB1012000E00020032AFC
:10125000824601D0072A04DB2946204600F0DAF94D
:101260003FE12078800601D40D2500E0E569C7F351
:101270000A560D2D49DA00214FEA175B08464FF058
:101280000000002F00F4400007DA00EB80004FF46C
:10129000400100EBD07001EA60008115012901DDF9
:1012A0004FF0FF3100224FEA850CBCF1180F06D336
:1012B0001346ACF118004FF08052C24003E04FF4E7
:1012C000801323FA0CF30CF10C0CBCF1200F04D3A7
:1012D000ACF1200C09FA0CF001E007FA0CF000293F
:1012E0004FF0004801DD18B90FE00ED140450CD396
:1012F00019EB02095F4121B9404502D19F4329EA18
:101300000209BBEB175F00D0761C2088000502D5D0
:101310007B48784402E07A487844193808AA302398
:1013200002F80A30037C0AF10101002E0AF1020AD8
:1013300053546A4602DC4FF0300101E04FF03101B6
:101340004FF001088DF8001002D0A6F2FF3603E03E
:1013500059EA470100D06B4E002D02DC21780907C5
:1013600004D54FF002082E218DF80110C44600214B
:101370000BE0C7F303433F01C35C491C6D1E02F839
:101380000830052908F1010801DA002DF1DC0021FF
:101390000CE000EB1973491C1B786D1E082902F83C
:1013A00008304FEA091908F1010801DA002DF0DCD4
:1013B00021688B0602D516E0A8F10108E04505DD9D
:1013C00002EB080313F8013C302BF5D0B8F1000F05
:1013D00009DD02EB080313F8013C2E2B03D10907AA
:1013E00001D4A8F10108002D05DD3E2102F8081006
:1013F0006D1E08F10108407C002E02F8080008F17B
:10140000010804DA2D20764202F8080002E02B20C1
:1014100002F808000A214FF47A70864208F10108A8
:101420000BDB96FBF0F3303302F8083096FBF0F359
:1014300008F1010800FB136601E0642E0CDB642058
:1014400096FBF0F3303302F8083096FBF0F308F126
:10145000010800FB136601E00A2E06DB96FBF1F0A3
:10146000303002F8080008F1010896FBF1F001FBAA
:101470001060303002F80800A16908F1010808EB9B
:10148000050202EB0A00081AA0612078C00602D407
:101490002046FFF711F9216A08AE01EB0A0020622D
:1014A00004E0D4E9012116F8010B9047BAF1010AD2
:1014B000F7D22078C00602D52046FFF7FDF86E4629
:1014C00009E016F8010B3E280FD0D4E9012190471E
:1014D000206A401C2062B8F10108F2D22046FFF7D2
:1014E00001F909B00320BDE8F08F206A284420628A
:1014F00003E0D4E90121302090476D1EEBD3F8E7DB
:101500006A55000002FCFFFF10B5436913B1AFF349
:10151000008001E0FFF709F9012010BD127800F109
:1015200024010A7000224A700122EDE711684FF091
:10153000FF32E9E710B5436913B1AFF3008001E072
:10154000FFF7A4F9012010BD128800F12401828464
:101550000022C2840122EDE711684FF0FF32E9E773
:10156000007B00F0800070472DE9F04116460C46E4
:10157000054600F043F8036893F80101012807D0FD
:10158000FF2C12D8185D80B101202C70BDE8F081CD
:10159000D3F807013246214603F20713C71828463D
:1015A000BC46BDE8F041002360474FF0FF30EDE757
:1015B000754600F0EBF8AE4605006946534620F04C
:1015C0000700854618B020B5FEF792FEBDE8204022
:1015D0004FF000064FF000074FF000084FF0000BEF
:1015E000AC46ACE8C009ACE8C009ACE8C009ACE85E
:1015F000C00921F007018D467047000010B500F0CA
:1016000005F8001D10BD00BFD5510000004870470F
:10161000680000102DE9F0411F46044603260168CA
:10162000072A01F4006004DB08B116A505E016A541
:1016300003E008B115A500E015A521F01000206019
:10164000A069C01EA0610FB1401EA0612046FFF737
:1016500033F84FB1D4E9012138469047206A401C45
:101660002062C01C206206E0206AFAE7D4E901216A
:1016700015F8010B9047761EF8D22046FFF732F896
:10168000BDE8F0814E414E006E616E00494E46004D
:10169000696E66002DE9F047814616468AB03548E6
:1016A00078440DC88DE80D0032487844801C03ACA6
:1016B0000DC884E80D0041F69B300844372190FBAB
:1016C000F1F290FBF1F5A5F1800501FB12041B3C42
:1016D00002D56442012000E00020DFF898A0804697
:1016E0000027FA44AAF1BE0A0EE0E0070AD032460B
:1016F000684607EB470101230AEB810104F001FF73
:101700008DE8070064107F1C002CEED1194F7F4438
:10171000AE3F19E0E80715D007EB04100DF1180AE9
:1017200090E80E008AE80E00C068F04201D19819D6
:1017300008903246012306A903A804F0E2FE03AB99
:1017400083E807006D10641C002DE3D14FF0010306
:1017500032466946B8F1000F03A802D004F0BCFE7F
:1017600001E004F0CEFEC9E90001C9F808200AB082
:10177000BDE8F0876C52000010B50446AFF300805E
:101780002046BDE81040FEF79EBD000000487047AF
:10179000480000100000000030B44FF0013C50F849
:1017A000042B51F8043BCCFA52F4D51A20D1FCB9E1
:1017B00050F8042B51F8043BCCFA52F4D51A17D147
:1017C000B4B950F8042B51F8043BCCFA52F4D51AB2
:1017D0000ED16CB950F8042B51F8043BCCFA52F4FA
:1017E000D51A05D1002CDAD030BC4FF0000070477C
:1017F00029BAB1FA81F111F01801D1F12000844029
:10180000F2D1CA40CB4012F0FF0213F0FF0330BC0C
:10181000D01A7047FFE7FEE77047000081B0EFF392
:10182000108072B60090FFE7FEE700008EB00D90CA
:101830000C9100200A90099008900B90FFE70B98FC
:101840000F2800F2CC81FFE70B99012088400A9015
:101850000C9800680A990840099009980A998842EA
:1018600040F0B881FFE70C98406800F003000128C1
:1018700007D0FFE70C98406800F0030002282FD142
:10188000FFE70D98806808900B984100032000FA4C
:1018900001F10898884308900C98C0680B9949009A
:1018A00000FA01F108980843089008980D9988609B
:1018B0000D98406808900B99012000FA01F10898F2
:1018C000884308900C984068C0F300100B9900FA08
:1018D00001F108980843089008980D994860FFE7BF
:1018E0000C98406800F00300032818D0FFE70D981B
:1018F000C06808900B984100032000FA01F1089895
:10190000884308900C9880680B99490000FA01F10F
:1019100008980843089008980D99C860FFE70C984C
:10192000406800F00300022826D1FFE70D980B99CC
:101930006FF0030202EA51010844006A08900B9814
:1019400000F0070081000F2000FA01F10898884399
:1019500008900C9800690B9901F00701890000FAC2
:1019600001F108980843089008980D990B9B02EA2A
:10197000530211440862FFE70D98006808900B9825
:101980004100032000FA01F10898884308900C9860
:10199000406800F003000B99490000FA01F1089833
:1019A0000843089008980D9908600C988079800782
:1019B000002800F00E81FFE7FFE70020079043F6C4
:1019C0004400C4F20200016841F4804101600068F3
:1019D00000F4804007900798FFE70B9820F0030081
:1019E00043F60801C4F20101405808900B9800F03A
:1019F000030081000F2000FA01F108988843089045
:101A00000D980021C4F20201884203D1FFE70020B3
:101A100006905EE00D9840F20041C4F20201884257
:101A200003D1FFE70120059050E00D9840F600013A
:101A3000C4F20201884203D1FFE70220049042E091
:101A40000D9840F60041C4F20201884203D1FFE73D
:101A50000320039034E00D9841F20001C4F202012A
:101A6000884203D1FFE70420029026E00D9841F25E
:101A70000041C4F20201884203D1FFE70520019032
:101A800018E00D9841F60001C4F20201884203D12A
:101A9000FFE7062000900AE00D9941F60042C4F2EB
:101AA00002020820914208BF07200090FFE700983B
:101AB0000190FFE701980290FFE702980390FFE78B
:101AC00003980490FFE704980590FFE705980690B7
:101AD000FFE70698C0B20B9901F00301890000FAF4
:101AE00001F108980843089008980B9921F0030128
:101AF00043F60802C4F20102885043F60040C4F2E3
:101B000001000068089009990898884308900C988B
:101B10008079C00728B1FFE7099908980843089021
:101B2000FFE7089843F60041C4F20101086043F65C
:101B30000440C4F20100006808900999089888439D
:101B400008900C9880798007002805D5FFE709994F
:101B5000089808430890FFE7089843F60441C4F248
:101B60000101086043F60840C4F2010000680890D3
:101B700009990898884308900C988079C006002835
:101B800005D5FFE70999089808430890FFE70898EA
:101B900043F60841C4F20101086043F60C40C4F268
:101BA00001000068089009990898884308900C98EB
:101BB00080798006002805D5FFE709990898084331
:101BC0000890FFE7089843F60C41C4F20101086051
:101BD000FFE7FFE7FFE70B9801300B902FE60EB011
:101BE0007047000083B00290ADF80610029840697B
:101BF0000090009ABDF8060002EA0001904340EA16
:101C000001400299886103B07047000082B00190E2
:101C1000ADF802108DF801209DF8010028B1FFE712
:101C2000BDF802000199886105E0BDF802000004DA
:101C300001998861FFE702B07047000040F2BC40A4
:101C4000C1F200000068704780B543F60041C4F25D
:101C50000201086840F400700860086840F4806081
:101C60000860086840F480700860032000F05CF8A9
:101C70000F2000F005F800F03BF8002080BD0000C8
:101C800080B582B0009040F20400C1F2000000680C
:101C900040F23801C1F200010A784FF47A71B1FBC9
:101CA000F2F1B0FBF1F000F079FD20B1FFE7012087
:101CB0008DF8070018E000980F280DD8FFE700996D
:101CC0004FF0FF30002200F015F8009840F23C0180
:101CD000C1F20001086003E001208DF8070003E075
:101CE00000208DF80700FFE79DF8070002B080BDD7
:101CF0007047000080B586B08DF8170004910392FC
:101D00000020029001F026F802909DF91700019042
:101D100002980499039A00F04DFE0146019801F0E3
:101D200021F806B080BD000080B582B00190019816
:101D300001F03AF802B080BD80B584B00290019104
:101D4000029820B9FFE701208DF80F0021E10198EA
:101D500043F60041C4F20201096801F0070188421C
:101D600012D9FFE7019943F60040C4F20200017066
:101D7000006800F007000199884204D0FFE70120C5
:101D80008DF80F0005E1FFE7029800788007002832
:101D90002AD5FFE7029800784007002809D5FFE719
:101DA00043F60801C4F20201086840F4E0500860FC
:101DB000FFE7029800780007002809D5FFE743F6FF
:101DC0000801C4F20201086840F460400860FFE7BF
:101DD00043F60801C4F20201086820F0F000029AFC
:101DE000926810430860FFE702980078C007002857
:101DF0006ED0FFE702984068012811D1FFE743F653
:101E00000000C4F20200006800F400310020B0EBD2
:101E1000514F04D1FFE701208DF80F00B9E02CE00D
:101E200002984068022805D0FFE70298406803281E
:101E300011D1FFE743F60000C4F20200006800F091
:101E400000710020B0EB516F04D1FFE701208DF845
:101E50000F009EE010E043F60000C4F202000068AC
:101E600000F002010020B0EB510F04D1FFE7012088
:101E70008DF80F008DE0FFE7FFE743F60801C4F29D
:101E80000201086820F00300029A526810430860BB
:101E9000FFF7D4FE0090FFE743F60800C4F202000B
:101EA000006800F00C0002994968B0EB810F0ED079
:101EB000FFE7FFF7C3FE0099401A41F289318842DB
:101EC00004D3FFE703208DF80F0062E0E4E7FFE7AB
:101ED000019843F60041C4F20201096801F00701CC
:101EE000884212D2FFE7019943F60040C4F2020093
:101EF0000170006800F007000199884204D0FFE7F4
:101F000001208DF80F0044E0FFE7029800784007B9
:101F100000280CD5FFE743F60801C4F20201086867
:101F200020F4E050029AD26810430860FFE702985C
:101F30000078000700280DD5FFE743F60801C4F23A
:101F40000201086820F46040029A126940EAC20067
:101F50000860FFE700F04CF843F60801C4F2020104
:101F60000968C9B20A0946F62811C0F60001895C61
:101F7000C84040F20401C1F20001086040F23C0098
:101F8000C1F200000068FFF77BFE00208DF80F0013
:101F9000FFE79DF80F0004B080BD000040F2040090
:101FA000C1F200000068704780B5FFF7F7FF43F605
:101FB0000801C4F202010968C1F3822246F6381111
:101FC000C0F60001895CC84080BD000080B5FFF705
:101FD000E5FF43F60801C4F20201096889B24A0B21
:101FE00046F63811C0F60001895CC84080BD00008B
:101FF00080B586B00020059004900390029043F6CF
:102000000800C4F20200006800F00C0001460191D3
:1020100040B1FFE7019804280AD0FFE7019808289B
:102020000CD04FE042F20040C0F2F40002904FE0CA
:1020300041F20020C0F27A00029049E043F6040029
:10204000C4F20200016801F03F01059100684002FE
:10205000002813D5FFE743F60400C4F2020000682D
:10206000C0F3881041F20021C0F27A01A0FB010107
:10207000059A0023FEF74FF9049012E043F604009E
:10208000C4F202000068C0F3881042F20041C0F2BE
:10209000F401A0FB0101059A0023FEF73CF904902E
:1020A000FFE743F60400C4F20200006800F4403188
:1020B000022000EBD130039004980399B0FBF1F0BB
:1020C000029005E042F20040C0F2F4000290FFE707
:1020D000029806B080BD000080B586B004900498D8
:1020E00020B9FFE701208DF8170052E3049800782B
:1020F000C007002800F0A780FFE743F60800C4F2FD
:102100000200006800F00C00042813D0FFE743F63B
:102110000800C4F20200006800F00C0008281ED17C
:10212000FFE743F60400C4F2020000684002002802
:1021300015D5FFE743F60000C4F20200006800F482
:1021400000310020B0EB514F08D0FFE70498406801
:1021500020B9FFE701208DF817001AE372E0FFE7CE
:1021600004984068B0F5803F09D1FFE743F60001CD
:10217000C4F20201086840F48030086020E004984E
:102180004068B0F5A02F0DD1FFE743F60001C4F27F
:102190000201086840F480200860086840F480303C
:1021A00008600CE043F60001C4F20201086820F464
:1021B00080300860086820F480200860FFE7FFE7AF
:1021C000FFE704984068F0B1FFE7FFF737FD0390A1
:1021D000FFE743F60000C4F20200006800F400319B
:1021E0000020B0EB514F0DD1FFE7FFF727FD03991A
:1021F000401AB0F5FA6F04D9FFE703208DF81700F5
:10220000C7E2E6E71DE0FFF719FD0390FFE743F69D
:102210000000C4F20200006800F400310020B0EBBE
:10222000514F0DD0FFE7FFF709FD0399401AB0F5B4
:10223000FA6F04D9FFE703208DF81700A9E2E6E75B
:10224000FFE7FFE7FFE7049800788007002840F1E8
:102250009680FFE743F60800C4F20200006810F021
:102260000C0F13D0FFE743F60800C4F20200006829
:1022700000F00C0008282CD1FFE743F60400C4F25C
:10228000020000684002002823D4FFE743F6000064
:10229000C4F20200006800F002010020B0EB510F10
:1022A00009D0FFE70498C068012804D0FFE70120A7
:1022B0008DF817006DE243F60001C4F202010868D0
:1022C00020F0F800049A126940EAC2000860FFE7B3
:1022D00054E00498C06870B3FFE70021C4F24721BE
:1022E00001200860FFF7AAFC0390FFE743F6000017
:1022F000C4F20200006800F002010020B0EB510FB0
:102300000CD1FFE7FFF79AFC0399401A032804D386
:10231000FFE703208DF817003BE2E7E743F60001F3
:10232000C4F20201086820F0F800049A126940EA39
:10233000C200086021E00021C4F2472100200860AB
:10234000FFF77CFC0390FFE743F60000C4F20200B5
:10235000006800F002010020B0EB510F0CD0FFE745
:10236000FFF76CFC0399401A032804D3FFE703200E
:102370008DF817000DE2E7E7FFE7FFE7FFE70498B6
:102380000078000700284BD5FFE70498406918B390
:10239000FFE740F68061C4F2472101200860FFF7A3
:1023A0004DFC0390FFE743F67400C4F2020000689E
:1023B00000F002010020B0EB510F0CD1FFE7FFF756
:1023C0003DFC0399401A032804D3FFE703208DF84E
:1023D0001700DEE1E7E722E040F68061C4F2472122
:1023E00000200860FFF72AFC0390FFE743F6740023
:1023F000C4F20200006800F002010020B0EB510FAF
:102400000CD0FFE7FFF71AFC0399401A032804D306
:10241000FFE703208DF81700BBE1E7E7FFE7FFE7E1
:10242000049800784007002840F1CE80FFE70020A4
:102430008DF8070043F64000C4F202000068C000B7
:10244000002815D4FFE7FFE70020009043F6400086
:10245000C4F20200016841F080510160006800F0A0
:10246000805000900098FFE701208DF80700FFE7FB
:1024700047F20000C4F200000068C005002822D422
:10248000FFE747F20001C4F20001086840F48070E1
:102490000860FFF7D3FB0390FFE747F20000C4F2A8
:1024A00000000068C00500280CD4FFE7FFF7C6FB5A
:1024B0000399401A032804D3FFE703208DF817007F
:1024C00067E1EAE7FFE7FFE704988068012809D1A0
:1024D000FFE743F67001C4F20201086840F0010012
:1024E00008601FE00498806805280DD1FFE743F6D7
:1024F0007001C4F20201086840F004000860086836
:1025000040F0010008600CE043F67001C4F20201E3
:10251000086820F001000860086820F004000860E6
:10252000FFE7FFE7FFE704988068F8B1FFE7FFF7F0
:1025300085FB0390FFE743F67000C4F202000068D9
:1025400000F002010020B0EB510F0ED1FFE7FFF7C2
:1025500075FB0399401A41F28931884204D3FFE7A1
:1025600003208DF8170014E1E5E71EE0FFF766FB96
:102570000390FFE743F67000C4F20200006800F029
:1025800002010020B0EB510F0ED0FFE7FFF756FB22
:102590000399401A41F28931884204D3FFE70320AE
:1025A0008DF81700F5E0E5E7FFE79DF80700012843
:1025B00009D1FFE743F64001C4F20201086820F0A8
:1025C00080500860FFE7FFE704988069002800F06A
:1025D000DC80FFE743F60800C4F20200006800F068
:1025E0000C00082800F08580FFE704988069022825
:1025F0005CD1FFE76021C4F2472100200860FFF7AB
:102600001DFB0390FFE743F60000C4F202000068E0
:1026100000F000710020B0EB516F0CD0FFE7FFF726
:102620000DFB0399401A032804D3FFE703208DF81C
:102630001700AEE0E7E70499C869D1F820C04B6AFB
:102640008A6A40EA0C0040EA8310D2034FF6FF7317
:102650009A43A2F580321043C96A40EA016043F60A
:102660000401C4F2020108606021C4F24721012084
:102670000860FFF7E3FA0390FFE743F60000C4F2B7
:102680000200006800F000710020B0EB516F0CD127
:10269000FFE7FFF7D3FA0399401A032804D3FFE7B3
:1026A00003208DF8170074E0E7E721E06021C4F211
:1026B000472100200860FFF7C1FA0390FFE743F6C7
:1026C0000000C4F20200006800F000710020B0EBCE
:1026D000516F0CD0FFE7FFF7B1FA0399401A0328B6
:1026E00004D3FFE703208DF8170052E0E7E7FFE788
:1026F0004AE004988069012804D1FFE701208DF8A1
:10270000170046E043F60400C4F20200006802909D
:1027100004988069012831D0FFE7029800F4800016
:102720000499C969884229D1FFE7029800F03F0067
:102730000499096A884221D1FFE7029847F6C071DF
:1027400008400499496AB0EB811F17D1FFE702984E
:1027500000F440300499896AC9034FF6FF7291432F
:10276000A1F58031884209D1FFE7029800F070603E
:102770000499C96AB0EB016F04D0FFE701208DF81E
:10278000170006E0FFE7FFE7FFE700208DF81700DE
:10279000FFE79DF8170006B080BD000080B582B04D
:1027A0000190019800F086F902B080BD80B582B03A
:1027B0000090009820B9FFE701208DF807003EE067
:1027C0000098806908B1FFE700E0FFE7009890F803
:1027D0003D0040B9FFE70099002081F83C000098D7
:1027E00000F032F8FFE70099242081F83D000098BE
:1027F0000168C86820F40050C860009800F00AFA28
:1028000000980168086920F4904008610098016808
:10281000486920F02A00486100980168C86840F4BF
:102820000050C860009900200864009A202182F8B6
:102830003D10009A82F83E108DF80700FFE79DF8E2
:10284000070002B080BD000080B58CB00B90002066
:102850000A9009900890079006900B98006841F242
:102860000001C4F20101884242D1FFE7FFE70020E6
:10287000059043F64400C4F20200016841F01001E3
:102880000160006800F0100005900598FFE7FFE781
:10289000FFE70020049043F63000C4F20200016814
:1028A00041F001010160006800F00100049004980B
:1028B000FFE7FFE74FF40070069002200790012029
:1028C000089003200990072001900A900020C4F28C
:1028D0000200029006A90391FEF7A8FF019A029850
:1028E00003994FF4806306930A92FEF79FFFFFE778
:1028F0000CB080BDFFE7FEE780B584B0039001F027
:10290000B9F8FFE741F20040C4F202004FF4007151
:10291000FFF768F9C82002F0D5F846F64910C0F66E
:102920000000694648602C20086046F6A511C0F6F4
:10293000000146F68112C0F6000246F69313C0F677
:102940000003032000F034FBDCE7000080B584B016
:10295000039000F0E9FA01201721029100F052FEE5
:102960000299022000F04EFE0299032000F04AFE78
:1029700000F042FFFFE746F65D10C0F60000694632
:1029800048601F20086046F6A511C0F6000146F613
:102990008112C0F6000246F69C13C0F60003032025
:1029A00000F006FB642002F08DF8E4E7FFE7FEE7A5
:1029B0007047000088B0079006910592079800F0D4
:1029C000070004900498C0F10700052803D3FFE72F
:1029D0000420019004E00498C0F107000190FFE793
:1029E0000198039004980430062803D8FFE70020DC
:1029F000009003E0049803380090FFE700980290ED
:102A000006980399012202FA01F101390840029B5C
:102A1000984005999A40013A1140084308B0704720
:102A2000EFF30980BFF36F8F154B1A681EF0100F7C
:102A300008BF20ED108A20E9F04F10602DE9090051
:102A40004FF0500080F31188BFF34F8FBFF36F8FAB
:102A500002F0C6F94FF0000080F31188BDE80900CC
:102A600019680868B0E8F04F1EF0100F08BFB0EC0E
:102A7000108A80F30988BFF36F8F704700BF00BFD3
:102A800040040010000000000000000000000000F2
:102A9000074B19680868B0E8F04F80F30988BFF366
:102AA0006F8F4FF0000080F31188704700BF00BFA8
:102AB0004004001080B582B0009000980138B0F159
:102AC000807F03D3FFE70120019019E000980138CF
:102AD0004EF21401CEF2000108604FF0FF300F21DA
:102AE00000F040F94EF21801CEF20001002008601B
:102AF0004EF21002CEF20002072111600190FFE7B2
:102B0000019802B080BD000080B582B04FF0500047
:102B100080F31188BFF36F8FBFF34F8F009002F0E7
:102B20000DFE40B1FFE74EF60451CEF200014FF02A
:102B300080500860FFE700200190019880F3118821
:102B400002B080BD80B594B008A83021FDF789FDA2
:102B5000002007900690059004900390FFE7002066
:102B6000029043F64000C4F20200016841F0805137
:102B70000160006800F0805002900298FFE7FFE7D4
:102B80000020019047F20000C4F20000016841F407
:102B900080410160006800F4804001900198FFE7E7
:102BA000012008904FF48030099002210E914FF4DB
:102BB00080000F9004201090A8221192129113907F
:102BC00008A8FFF789FA18B1FFE7FEF727FEFFE72D
:102BD0000F20039002200490002005904FF4A05095
:102BE00006904FF48050079003A80521FFF7A4F842
:102BF00018B1FFE7FEF712FEFFE714B080BD00003A
:102C00004EF68851CEF20001086840F4700008606A
:102C10007047000080B586B005900598006800698F
:102C200020F44050059A1168D26810430861059954
:102C300088680B694A69C9691843104308430490BE
:102C400005980068C06849F20C61884304990843FC
:102C500005990968C86005980068406920F44070CB
:102C6000059A11689269104348610598006841F21D
:102C70000001C4F20101884209D0FFE7059800680D
:102C800041F20041C4F20101884204D1FFE7FFF79D
:102C90009DF9039003E0FFF787F90390FFE705989C
:102CA000C069B0F5004F29D1FFE703981921A0FBB7
:102CB0000101059A1368029353685A00DB0FFDF770
:102CC0002AFB0299864648F21F53C5F2EB13AEFB6E
:102CD0000320420910014FF0640C02FB1CEC32226D
:102CE00002EBCC02A2FB0332F82303EA521300EBFF
:102CF0004300C2F342121044886026E00398192171
:102D0000A0FB0101059A1368019353689A009B0F79
:102D1000FDF701FB0199844648F21F52C5F2EB1200
:102D2000ACFB02304309642003FB10CC322000EBE3
:102D30000C10A0FB0202F02000EA521000EB03107E
:102D4000C2F3431210448860FFE706B080BD000064
:102D5000FFE7FEE74EF60C50CEF200000068C0F32D
:102D60000220704782B08DF8070000919DF907009E
:102D700000280AD4FFE7009800019DF907104EF2E1
:102D80000042CEF2000288540BE0009800019DF84A
:102D9000071001F00F014EF61452CEF200028854D3
:102DA000FFE702B07047000083B00290029800F085
:102DB000070000904EF60C51CEF200010868019019
:102DC00001984FF6FF02104001900198009A40EAE6
:102DD00002200022C0F2FA521043019001980860CC
:102DE00003B0704781B0009001B0704780B588B0E3
:102DF00006900698D0BBFFE740F2F410C1F2000045
:102E0000006808BBFFE7694640F2C710086146F654
:102E1000DD23C0F60003CB6046F6C912C0F60002FF
:102E20008A6046F60422C0F600024A60086046F650
:102E3000D821C0F6000146F67022C0F6000200203C
:102E400000F0B6F8FFE7FEE740F2F410C1F2000030
:102E5000036846F6C910C0F6000046F6DD21C0F64C
:102E6000000140F2C7129847FFE7FFE700208DF806
:102E7000170005208DF8160040F2FC00C1F200009A
:102E800090F8F000C00728B9FFE79DF816008DF80C
:102E90001F0044E000F04AFA00208DF81700FFE719
:102EA0009DF81700042833DCFFE79DF8170000EBBE
:102EB000401140F2FC00C1F20000084490F85100BB
:102EC000C007F0B1FFE706989DF8171001EB41121B
:102ED00040F2FC01C1F20001114432311E22FDF723
:102EE00006FB70B9FFE79DF8170000EB401140F2B8
:102EF000FC00C1F20000084490F831008DF8160083
:102F000006E0FFE79DF8170001308DF81700C7E7CE
:102F100000F06CFA9DF816008DF81F00FFE79DF891
:102F20001F0008B080BD000080B584B000208DF87F
:102F30000E0040F2FC00C1F2000090F8F000C00763
:102F400028B1FFE79DF80E008DF80F002BE000F090
:102F500081FA8DF80E009DF80E0028B1FFE79DF86C
:102F60000E008DF80F001EE00120029000F0FCF929
:102F7000029840F2FC02C1F200020192002182F8A4
:102F8000F31082F8F41000F0E1FB052000F0B2FA33
:102F900000F0FCFA0199029881F8F0009DF80E000B
:102FA0008DF80F00FFE79DF80F0004B080BD000012
:102FB00080B594B0DDF85CC0DDF858C08DF84F00E6
:102FC0001291119210931298FDF772FA0F9000204F
:102FD0000E9002200D909DF84F0006283ADBFFE787
:102FE00040F2F410C1F20000006808BBFFE7694638
:102FF00040F22520086146F65033C0F60003CB604E
:1030000046F65322C0F600028A6046F60422C0F655
:1030100000024A60086046F6D821C0F6000146F674
:103020007022C0F600020020FFF7C2FFFFE7FEE7B4
:1030300040F2F410C1F20000036846F65320C0F6D7
:10304000000046F65031C0F6000140F225229847B4
:10305000FFE7FFE740F2FC00C1F2000090F8F1004A
:10306000C00708B9FFE75EE19DF84F0040F2FC01A0
:10307000C1F20001097888420BDCFFE79DF84F00A0
:103080000A901298FFF7B2FE01460A98884201DDC5
:10309000FFE748E1129840F2FC01C1F20001013162
:1030A000FDF7F4F908B9FFE73DE1FFE718A80C9038
:1030B00000F03CF940F2FC00C1F2000090F8F5008D
:1030C000C00718B3FFE70E9840F24021C1F200019B
:1030D0000991014446F66D22C0F6000200F0BAFBE9
:1030E000099902460E9810440E900E9801449DF8DE
:1030F0004F3040F20802C1F2000252F8232000F0E3
:10310000A9FB01460E9808440E90FFE79DF84F007A
:10311000012100F051FCA8B1FFE70E9840F24021D8
:10312000C1F2000101449DF84F3040F22002C1F28B
:10313000000252F8232000F08DFB01460E9808444F
:103140000E90FFE79DF84F001C2100F035FC002891
:1031500044D0FFE70E9840F24021C1F20001014443
:1031600046F6C712C0F6000200F074FB01460E9846
:1031700008440E909DF84F00042100F01DFC60B340
:10318000FFE70E99089140F24020C1F20000084488
:10319000079000F049F907990246089800F05AFB99
:1031A00001460E9808440E909DF84F00182100F03B
:1031B00003FC88B1FFE70E9840F24021C1F2000104
:1031C000014446F6AF12C0F6000200F043FB014690
:1031D0000E9808440E90FFE7FFE7FFE79DF84F00C9
:1031E000022100F0E9FBE0B1FFE70E9840F2402138
:1031F000C1F2000106910144129A00F02BFB0699DE
:1032000002460E9810440E900E98014446F6B212F3
:10321000C0F6000200F01EFB01460E9808440E9016
:10322000FFE70E9940F24020C1F200000844C1F5CA
:103230000071179A0C9BFDF70FF90B900E980B99E4
:103240000844B0F5007F09D8FFE70B98002805D4A3
:10325000FFE70B990E9808440E9003E04FF40070BE
:103260000E90FFE70E980D9908440430B0F5007FEA
:103270000BD9FFE74FF400700E900E9804380E90B3
:103280000D990E98401A0E90FFE740F2FC00C1F233
:10329000000090F82000A0B1FFE70E9A40F2402015
:1032A000C1F200000021815440F2FC01C1F2000192
:1032B0002031FDF7EBF818B9FFE700F097F832E09E
:1032C000FFE740F2FC00C1F2000090F8F500C007F3
:1032D00088B1FFE70E9840F24021C1F2000101449D
:1032E00046F60932C0F6000200F0B4FA01460E9824
:1032F00008440E90FFE70E9840F24021C1F2000111
:103300000591014446F64612C0F6000200F0A2FA0A
:10331000024605980E9911440E910E9900F0B4F8EA
:1033200000F064F8FFE714B080BD000080B540F203
:10333000FC00C1F2000090F8F200C00750B1FFE7B6
:1033400000F0B0F840F2FC01C1F20001012081F868
:10335000F40007E040F2FC01C1F20001012081F815
:10336000F300FFE780BD000080B582B08DF8070054
:103370009DF8070000F0010140F2FC00C1F20000DE
:1033800080F8F21090F8F200C00760B3FFE740F257
:10339000FC00C1F2000090F8F400C00760B9FFE73C
:1033A00040F2FC00C1F2000090F8F300C00718B131
:1033B000FFE700F077F815E040F2FC00C1F20000F2
:1033C00090F8F400C00760B1FFE740F2FC00C1F2E2
:1033D000000090F8F300C00718B9FFE700F076F896
:1033E000FFE7FFE7FFE702B080BD000080B540F2D5
:1033F000FC00C1F2000090F8F200C00750B1FFE7F6
:1034000000F064F840F2FC01C1F20001002081F8F4
:10341000F40007E040F2FC01C1F20001002081F855
:10342000F300FFE780BD000080B582B002F07CF9B8
:103430000190019B40F2F810C1F20000009046F6A6
:103440009F32C0F600020C21FCF7EAFF009802B0A0
:1034500080BD000080B582B000208DF807000120FB
:1034600001F0DCFD014640F20050C1F200000160B5
:10347000006820B9FFE701208DF80700FFE79DF8FD
:10348000070002B080BD000080B582B001900091BD
:103490000099019A46F69A30C0F60000FCF7B4FF96
:1034A00002B080BD80B540F20050C1F2000000685B
:1034B00050B1FFE740F20050C1F2000000684FF049
:1034C000FF3101F08BFFFFE780BD000080B540F2C7
:1034D0000050C1F20000006858B1FFE740F2005010
:1034E000C1F200000068002319461A4601F07CFE74
:1034F000FFE780BD80B586B08DF817009DF81700F6
:1035000006283ADBFFE740F2F410C1F20000006841
:1035100008BBFFE7694640F24110086146F6F52313
:10352000C0F60003CB6046F65322C0F600028A6064
:1035300046F60422C0F600024A60086046F6D8212A
:10354000C0F6000146F67022C0F600020020FFF728
:103550002FFDFFE7FEE740F2F410C1F20000036820
:1035600046F65320C0F6000046F6F521C0F60001ED
:1035700040F241129847FFE7FFE79DF8170040F23D
:10358000FC01C1F20001087006B080BD83B00020CC
:103590008DF80B00FFE79DF80B0004282FDCFFE7F8
:1035A0009DF80B0000EB401040F2FC01C1F200015D
:1035B00031310A18009200200190D061C2F8190040
:1035C000C2F81500C2F81100C2F80D00C2F80900D7
:1035D000C2F80500C2F801009DF80B2002EB421270
:1035E00088549DF80B2002EB4212114481F8200010
:1035F000FFE79DF80B0001308DF80B00CBE703B01F
:103600007047000080B588B08DF81F0006919DF8C6
:103610001F0006283ADBFFE740F2F410C1F2000079
:10362000006808BBFFE769464FF49470086146F6EE
:103630003833C0F60003CB6046F65322C0F60002D2
:103640008A6046F60422C0F600024A60086046F628
:10365000D821C0F6000146F67022C0F60002002014
:10366000FFF7A6FCFFE7FEE740F2F410C1F200000E
:10367000036846F65320C0F6000046F63831C0F61F
:1036800000014FF494729847FFE7FFE706989DF812
:103690001F2040F2FC01C1F2000101EB8201C1F8E0
:1036A000D80008B080BD000080B586B08DF8170046
:1036B0009DF81700C007E8B3FFE79DF81700C007A3
:1036C000C0BBFFE740F2F410C1F20000006800BB8D
:1036D000FFE76946FD20086146F6C023C0F60003F7
:1036E000CB6046F6DC12C0F600028A6046F6042281
:1036F000C0F600024A60086046F6D821C0F6000114
:1037000046F67022C0F600020020FFF751FCFFE7EA
:10371000FEE740F2F410C1F20000036846F6DC1048
:10372000C0F6000046F6C021C0F60001FD22984711
:10373000FFE7FFE79DF8170000F0010040F2FC01F1
:10374000C1F2000181F8F10006B080BD80B586B0FD
:103750008DF817009DF81700C00700283FD0FFE73D
:103760009DF81700C007D0BBFFE740F2F410C1F28C
:103770000000006808BBFFE7694640F209100861D5
:1037800046F69423C0F60003CB6046F6DC12C0F682
:1037900000028A6046F60422C0F600024A60086011
:1037A00046F6D821C0F6000146F67022C0F60002A7
:1037B0000020FFF7FDFBFFE7FEE740F2F410C1F247
:1037C0000000036846F6DC10C0F6000046F69421BF
:1037D000C0F6000140F209129847FFE7FFE79DF8A5
:1037E000170000F0010040F2FC01C1F2000181F875
:1037F000F50006B080BD000080B584B040F2FC004A
:10380000C1F2000090F8F000C00708B9FFE71FE020
:103810000120FFF749FF46F64C20C0F6000069463C
:10382000886046F62620C0F600004860DE2008606A
:1038300046F6D821C0F6000146F67022C0F6000216
:1038400046F64533C0F600030320FFF7B1FBFFE760
:1038500004B080BD80B58AB009900891079207989E
:1038600006900898C0BBFFE740F2F410C1F20000D8
:10387000006800BBFFE769462C20086146F68E33DE
:10388000C0F60003CB6046F68A32C0F600028A60BA
:1038900046F60422C0F600024A60086046F6D821C7
:1038A000C0F6000146F65C32C0F600020020FFF7C9
:1038B0007FFBFFE7FEE740F2F410C1F2000003686F
:1038C00046F68A30C0F6000046F68E31C0F600019A
:1038D0002C229847FFE7FFE70798C0BBFFE740F2BD
:1038E000F410C1F20000006800BBFFE769462D201C
:1038F000086146F68E33C0F60003CB6046F686328A
:10390000C0F600028A6046F60422C0F600024A6051
:10391000086046F6D821C0F6000146F65C32C0F6D3
:1039200000020020FFF744FBFFE7FEE740F2F4103F
:10393000C1F20000036846F68630C0F6000046F685
:103940008E31C0F600012D229847FFE7FFE7FFE721
:103950000798007898B1FFE70999481C0990002062
:10396000B0EB512F09D1FFE70798411C0791007870
:1039700008994A1C0892087000E000E0E8E7079800
:103980000699401A0AB080BD82B001900091FFE70D
:1039900041F20000C4F2010000684006002801D492
:1039A000FFE7F5E79DF8040041F20401C4F20101CC
:1039B0000860019802B0704780B588B08DF81E008D
:1039C00006919DF81E0006283ADBFFE740F2F4104E
:1039D000C1F20000006808BBFFE769464FF433708E
:1039E000086146F6B023C0F60003CB6046F65322CA
:1039F000C0F600028A6046F60422C0F600024A6061
:103A0000086046F6D821C0F6000146F67022C0F6DE
:103A100000020020FFF7CCFAFFE7FEE740F2F410C7
:103A2000C1F20000036846F65320C0F6000046F6D7
:103A3000B021C0F600014FF433729847FFE7FFE76B
:103A40009DF81E1040F2FC00C1F2000000EB810066
:103A5000D0F8D8000699084204D0FFE701208DF87D
:103A60001F0003E000208DF81F00FFE79DF81F00F6
:103A700008B080BD80B58AB0FFE7FFE70020049062
:103A800043F63000C4F20200016841F020010160F9
:103A9000006800F0200004900498FFE7FFE7FFE7CC
:103AA000FFE70020039043F63000C4F202000168F3
:103AB00041F020010160006800F0200003900398AD
:103AC000FFE7FFE74FF40070059001200690079094
:103AD0000220089041F20040C4F20200019005A9C2
:103AE0000291FDF7A3FE019802994FF480620592BE
:103AF000FDF79CFEFFE741F20040C4F202004FF4E4
:103B000000710122FEF782F8FFE7FFE741F2004073
:103B1000C4F202004FF480610122FEF777F8FFE75C
:103B20000AB080BD80B586B0002003900590FEF7F6
:103B30008BF8FFF707F8FFF79DFF00F04BFE46F606
:103B40004010C0F60000FCF75FFC039B69464B6029
:103B50000320086042F6F900C0F6000046F6931113
:103B6000C0F600014FF47A7201F08EFD012807D1F2
:103B7000FFE746F67110C0F60000FCF745FCFFE7D2
:103B8000694600234B600220086042F64D10C0F6E3
:103B9000000046F69C11C0F600014FF47A7201F065
:103BA00073FD012807D1FFE746F67110C0F600004B
:103BB000FCF72AFCFFE701F0BBF8002006B080BD4F
:103BC00080B586B00590049140F26C50C1F20000BF
:103BD0000068029040F24040C1F2000000680430EA
:103BE00000F010FE88B9FFE740F24040C1F200004B
:103BF0000068C16A012000FA01F240F2D041C1F22E
:103C0000000108689043086000E0FFE70598013074
:103C100018BBFFE7049800B3FFE740F24451C1F23C
:103C2000000148680190019A40F24040C1F2000052
:103C300003689A60019A92680368DA600268043245
:103C4000019B9B685A6002680432019B9A6000687D
:103C500041610868013008603DE002980599084418
:103C60000390039840F24041C1F2000109684860A6
:103C70000398029988420ED2FFE740F24C40C1F20D
:103C80000000006840F24041C1F2000109680431BF
:103C900000F0FCFD1EE040F24440C1F2000000686C
:103CA00040F24041C1F200010968043100F0EEFD2C
:103CB000039840F21051C1F200010968884207D20E
:103CC000FFE7039840F21051C1F20001086000E0E4
:103CD000FFE7FFE7FFE706B080BD000080B582B0D8
:103CE000019000F013FE40F2C041C1F200010868EB
:103CF0000130086040F24040C1F20000006898B90D
:103D0000FFE7019840F24041C1F20001086040F233
:103D1000C040C1F200000068012803D1FFE700F0B5
:103D200081FA00E0FFE71CE040F23850C1F20000E9
:103D30000068A0B9FFE740F24040C1F2000000680F
:103D4000C06A0199C96A884207D8FFE7019840F222
:103D50004041C1F20001086000E0FFE700E0FFE73A
:103D6000FFE740F2CC40C1F2000001680131016080
:103D70000068019948640198C16A012000FA01F2C3
:103D800040F2D041C1F20001086810430860019878
:103D9000C06A00EB800040F25041C1F2000101EB2B
:103DA0008000406800900098019A906000988068B8
:103DB000019AD06001980430009A9268506001988E
:103DC0000430009A9060019AD06A00EB800001EB09
:103DD000800050610198C06A00EB800251F8220017
:103DE000013041F8220000F0BDFD40F23850C1F230
:103DF00000000068C8B1FFE740F24040C1F2000097
:103E00000068C06A0199C96A88420CD2FFE74EF681
:103E10000451CEF200014FF080500860BFF34F8F85
:103E2000BFF36F8F00E0FFE700E0FFE702B080BD67
:103E300080B582B0FFE740F2C440C1F200000068E4
:103E400008B3FFE700F062FD40F25850C1F20000F5
:103E5000C068C06801900198043000F0D3FC40F2C3
:103E6000C041C1F2000108680138086040F2C44155
:103E7000C1F2000108680138086000F073FD019884
:103E800000F06AF8D7E702B080BD000080B586B0C8
:103E9000059004910392002002900598806B019098
:103EA0000598006C78B9FFE70598006848B9FFE706
:103EB0000598806801F072FD0290059900208860E5
:103EC00000E0FFE741E00398B8B9FFE7059A0499DD
:103ED0005068126CFCF756FB059948680A6C104450
:103EE0004860059948688968884204D3FFE70599C6
:103EF0000868486000E0FFE726E0059A0499D0686A
:103F0000126CFCF73FFB0599C8680A6C801AC86000
:103F100005980168C068884206D2FFE7059988685D
:103F20000A6C801AC86000E0FFE70398022809D1F4
:103F3000FFE7019820B1FFE701980138019000E008
:103F4000FFE700E0FFE7FFE7FFE701980130059991
:103F50008863029806B080BD80B582B00190019858
:103F6000006B00F025FD019800F022FD02B080BD3D
:103F700082B001900198406A38B1FFE70198006B68
:103F80000068C0F10500009002E000200090FFE70B
:103F9000009802B07047000084B04FF4F0300090F9
:103FA00040F20000C2F2000001909DF804004007BA
:103FB00088B1FFE7019807300190019820F00700D1
:103FC0000190019A40F20001C2F200010098891AA2
:103FD00008440090FFE701980290029940F23C509B
:103FE000C1F200000160002141600298009A104473
:103FF0000190019808380190019820F00700019085
:10400000019A40F24840C1F200000260026851602B
:1040100002681160029903910199039A891A51600B
:104020000068039908600398406840F20C51C1F29F
:10403000000108600398406840F20451C1F2000199
:10404000086040F2D441C1F200014FF00040086026
:1040500004B0704780B582B00190FFE7FFF7E8FE3B
:1040600040F25040C1F20000006802280CD3FFE784
:104070004EF60451CEF200014FF080500860BFF3BD
:104080004F8FBFF36F8F00E0FFE7E7E780B582B0A7
:104090000190019868B1FFE70198002383600198BF
:1040A00003600198C360019819461A4601F09CF814
:1040B00000E0FFE702B080BD80B584B0DDF818C035
:1040C0000390029101928DF80330029818B9FFE72E
:1040D0000698006003E0019806990860FFE70398DE
:1040E0000699C8630298069908640698012100F0B1
:1040F000F7FF9DF80300069981F84C0004B080BDDD
:1041000080B588B0DDF834C0DDF830C0DDF82CC0F3
:10411000DDF828C005900491039202930C98006B7F
:1041200003998900A522FCF772FA0C98006B039999
:1041300000EB810004380190019820F00700019005
:104140009DF80400400758B1FFE74FF0500080F39E
:104150001188BFF36F8FBFF34F8F0690FFE7FEE725
:104160000498F8B1FFE700200090FFE700980E28C0
:1041700013D8FFE70498009A805C0C99114481F8E9
:10418000340004980099405C08B9FFE705E0FFE7B8
:10419000FFE7009801300090E8E70C99002081F8D3
:1041A000420000E0FFE70A9805280BD3FFE74FF035
:1041B000500080F31188BFF36F8FBFF34F8F0790CC
:1041C000FFE7FEE70A98052803D3FFE704200A90DB
:1041D00000E0FFE70A980C99C8620A980C99C86435
:1041E0000C98043000F04AFB0C98183000F046FBA5
:1041F0000C9800610A98C0F105000C9988610C9830
:10420000406201980599029A00F0B4FA0C9908608E
:104210000B9820B1FFE70C980B99086000E0FFE7CE
:1042200008B080BD80B584B000200390FFE70398FC
:10423000042810D8FFE7039800EB800140F25040BB
:10424000C1F2000000EB810000F000FBFFE70398E3
:1042500001300390EBE740F2D840C1F2000001903A
:1042600000F0F4FA40F2EC40C1F20000029000F0DD
:10427000EDFA40F22450C1F2000000F0E7FA40F2FB
:104280005850C1F2000000F0E1FA40F24450C1F28F
:10429000000000F0DBFA0199029840F24442C1F2BA
:1042A0000002116040F24C41C1F20001086004B00C
:1042B00080BD000083B0029040F23C50C1F200008B
:1042C0000190FFE7019800680299884205D2FFE754
:1042D000FFE7019800680190F4E7019800900098CA
:1042E0000199496808440299884209D1FFE7029878
:1042F000426801994868104448600198029000E0C3
:10430000FFE70298009000980299496808440199D3
:104310000968884220D1FFE70198006840F24841CF
:10432000C1F20001096888420DD0FFE701980068DA
:104330004268029948681044486001980068006823
:104340000299086007E040F24840C1F200000068AE
:1043500002990860FFE704E001980068029908608C
:10436000FFE701980299884204D0FFE7029801997B
:10437000086000E0FFE703B07047000080B582B03E
:10438000019000F0C3FA0198806B18B9FFE7012093
:10439000009002E000200090FFE700F0E3FA0098B0
:1043A00002B080BD80B582B0019000F0AFFA0198F4
:1043B000806B0199C96B884203D1FFE7012000900F
:1043C00002E000200090FFE700F0CCFA009802B075
:1043D00080BD000008480068006880F308884FF03E
:1043E000000080F3148862B661B6BFF34F8FBFF34D
:1043F0006F8F00DF00BF00BF08ED00E040F24440D7
:10440000C1F200000068006840B9FFE740F21051B7
:10441000C1F200014FF0FF3008600CE040F2444070
:10442000C1F200000068C068006840F21051C1F29B
:1044300000010860FFE7704783B00020009040F261
:104440004000C1F200000068013058B1FFE74FF0B2
:10445000500080F31188BFF36F8FBFF34F8F01902F
:10446000FFE7FEE74FF0500080F31188BFF36F8F36
:10447000BFF34F8F0290FFE7009808B9FFE7FBE713
:1044800003B0704780B582B0019000F03FFA019808
:1044900090F845008DF80300FFE79DF9030001281F
:1044A00016DBFFE70198406A58B1FFE70198243016
:1044B00001F0BEFB18B1FFE700F04EFB00E0FFE7A4
:1044C00000E005E09DF8030001388DF80300E4E703
:1044D0000199FF2081F8450000F044FA00F016FA37
:1044E000019890F844008DF80200FFE79DF9020062
:1044F000012816DBFFE70198006980B1FFE701980A
:10450000103001F095FB18B1FFE700F025FB00E04B
:10451000FFE79DF8020001388DF8020000E000E09E
:10452000E4E70199FF2081F8440000F01BFA02B093
:1045300080BD000080B58AB006900020029000F097
:1045400047FC40F24840C1F20000006818B9FFE79C
:10455000FFF722FD00E0FFE7069840F2D441C1F2E8
:1045600000010968084240F0D880FFE7069888B348
:10457000FFE7069901F1080088422BD9FFE706986A
:10458000083006909DF81800400708B3FFE7069929
:1045900021F007000830884216D9FFE7069820F07E
:1045A0000700083006909DF81800400758B1FFE753
:1045B0004FF0500080F31188BFF36F8FBFF34F8F20
:1045C0000790FFE7FEE702E000200690FFE700E02B
:1045D000FFE702E000200690FFE70698002800F0C1
:1045E0009A80FFE7069840F20451C1F20001096881
:1045F000884200F29080FFE740F23C50C1F2000098
:10460000049000680590FFE705984168069A00202D
:104610009142019007D2FFE705980068002818BF73
:1046200001200190FFE70198C00730B1FFE705982E
:104630000490059800680590E6E7059840F2484127
:10464000C1F200010968884263D0FFE7049800685E
:104650000830029005980068049908600598406841
:104660000699401A112821D3FFE7059806990844B6
:1046700003909DF80C00400758B1FFE74FF0500041
:1046800080F31188BFF36F8FBFF34F8F0890FFE760
:10469000FEE7059840680699401A03994860069815
:1046A000059948600398FFF705FE00E0FFE70598CD
:1046B000426840F20450C1F200000168891A0160AA
:1046C000006840F20C51C1F20001096888420BD227
:1046D000FFE740F20450C1F20000006840F20C51C4
:1046E000C1F20001086000E0FFE740F2D440C1F2EF
:1046F0000000026805994868104348600599002049
:10470000086040F21851C1F20001086801300860E9
:1047100000E0FFE700E0FFE700E0FFE701F04EFB0D
:104720009DF80800400758B1FFE74FF0500080F3B4
:104730001188BFF36F8FBFF34F8F0990FFE7FEE73C
:1047400002980AB080BD000040F24040C1F2000073
:10475000006848B1FFE740F24040C1F20000016844
:10476000086D01300865FFE740F24040C1F20000EB
:104770000068704783B0029001910092029804385B
:10478000029002994FF080700860029804380290FD
:10479000019820F001000299086002980438029004
:1047A000029944F23940C0F60000086002981438BB
:1047B00002900098029908600298043802900299C9
:1047C0006FF002000860029820380290029803B04F
:1047D0007047000080B540F2FC10C1F2000041F2C9
:1047E0000001C4F2010101604FF4E1314160002198
:1047F0008160C160016181610C214161FDF7D6FFDB
:1048000080BD000082B0019001980069009001987D
:1048100041688068886001994868896848600098A4
:1048200040680199884205D1FFE7019880680099A6
:10483000486000E0FFE701990020086100990868DE
:10484000013808600098006802B0704781B000909D
:10485000009901F10800486000994FF0FF3088602E
:10486000009901F10800C860009901F10800086191
:1048700000990020086001B07047000081B00090EE
:1048800000990020086101B07047000084B00390D7
:1048900002910298006800900098013020B9FFE76B
:1048A00003980069019010E0039808300190FFE739
:1048B0000198406800680099884205D8FFE7FFE743
:1048C000019840680190F3E7FFE70198406802997A
:1048D000486002984168886001980299886002984F
:1048E00001994860039802990861039908680130AA
:1048F000086004B070470000DFF80C00016841F464
:1049000070010160704700BF88ED00E082B04FF099
:10491000500080F31188BFF36F8FBFF34F8F00906B
:1049200040F24000C1F200000168013101600068FE
:10493000012814D1FFE74EF60450CEF200000068C3
:10494000000658B1FFE74FF0500080F31188BFF325
:104950006F8FBFF34F8F0190FFE7FEE7FFE702B0D5
:104960007047000082B040F24000C1F200000068D1
:1049700058B9FFE74FF0500080F31188BFF36F8FF5
:10498000BFF34F8F0090FFE7FEE740F24000C1F217
:104990000000016801390160006830B9FFE70020BC
:1049A0000190019880F31188FFE702B07047000082
:1049B00080B586B0039003980290039800285CD0DD
:1049C000FFE7029808380290029801900198406829
:1049D00040F2D441C1F20001096808420BD1FFE75F
:1049E0004FF0500080F31188BFF36F8FBFF34F8FEC
:1049F0000490FFE7FEE70198006858B1FFE74FF029
:104A0000500080F31188BFF36F8FBFF34F8F059075
:104A1000FFE7FEE70198406840F2D441C1F200018F
:104A20000968084227D0FFE70198006808BBFFE744
:104A300040F2D440C1F200000268019948689043F6
:104A4000486000F0C5F90198426840F20451C1F293
:104A500000010868104408600198FFF72BFC40F241
:104A60001C51C1F2000108680130086001F0A6F98C
:104A700000E0FFE700E0FFE7FFE706B080BD0000D1
:104A80004EF21001CEF20001002008604EF2180232
:104A9000CEF20002106040F20400C1F20000006893
:104AA00044F6D352C1F26202A0FB02024FF0FF3083
:104AB00000EB92104EF21402CEF2000210600720BA
:104AC0000860704780B584B0029000200190029881
:104AD000E0B1FFE740F2C840C1F20000006858B101
:104AE000FFE74FF0500080F31188BFF36F8FBFF3E3
:104AF0004F8F0390FFE7FEE700F06AF9029800216C
:104B0000FFF75EF801F05AF9019000E0FFE7019825
:104B100060B9FFE74EF60451CEF200014FF080502D
:104B20000860BFF34F8FBFF36F8F00E0FFE704B063
:104B300080BD000081B0009040F21450C1F200002E
:104B400000680099086040F26C50C1F200000068F3
:104B50000099486001B0704740F27051C1F2000105
:104B6000012008607047000080B584B00290019178
:104B7000029858B9FFE74FF0500080F31188BFF357
:104B80006F8FBFF34F8F0390FFE7FEE7029840F26D
:104B90004041C1F2000109681831FFF777FE019822
:104BA0000121FFF70DF804B080BD000080B58AB088
:104BB0000790069107980590012002900798002819
:104BC00000F0B280FFE70598006D58B9FFE74FF09D
:104BD000500080F31188BFF36F8FBFF34F8F0890A1
:104BE000FFE7FEE70598C06C0699884203D2FFE70D
:104BF0000698039003E00598C06C0390FFE70598C2
:104C0000C06A0399884200F08D80FFE70598006D27
:104C1000012840F08580FFE7059840F24041C1F24D
:104C20000001096888420BD1FFE74FF0500080F384
:104C30001188BFF36F8FBFF34F8F0990FFE7FEE737
:104C40000598C06A049003980599C8620598C07ECB
:104C50000006002806D4FFE70398C0F10500059977
:104C6000886100E0FFE705984069049901EB810243
:104C700040F25041C1F2000101EB820188424DD166
:104C8000FFE705980430FFF7BDFD68B9FFE7059819
:104C9000C16A012000FA01F240F2D041C1F20001E4
:104CA00008689043086000E0FFE70598C16A0120AA
:104CB00000FA01F240F2D041C1F20001086810434D
:104CC00008600598C06A00EB800040F25041C1F2D4
:104CD000000101EB8000406801900198059A906006
:104CE00001988068059AD06005980430019A92680E
:104CF000506005980430019A9060059AD06A00EBE4
:104D0000800001EB800050610598C06A00EB8002D2
:104D100051F82200013041F8220000E0FFE700E0F6
:104D2000FFE700E0FFE700E0FFE70AB080BD00001A
:104D300080B586B040F20851C1F20001684641607A
:104D40000023036044F25500C0F6000046F6AA11A5
:104D5000C0F60001822200F097FC0390039801281E
:104D60001FD1FFE74FF0500080F31188BFF36F8F22
:104D7000BFF34F8F049040F21051C1F200014FF089
:104D8000FF30086040F23851C1F200010120086094
:104D900040F26C51C1F200010020086000F080F880
:104DA0000FE00398013058B9FFE74FF0500080F34F
:104DB0001188BFF36F8FBFF34F8F0590FFE7FEE7BA
:104DC000FFE746F6A430C0F60000006806B080BDDC
:104DD00040F2C841C1F20001086801300860704724
:104DE00085B040F2C840C1F20000006838B1FFE76A
:104DF00040F27051C1F20001012008604DE040F224
:104E00007051C1F200010020086040F2D040C1F2B0
:104E10000000006803900398B0FA80F08DF80B0052
:104E20009DF80B00C0F11F000190019800EB80017C
:104E300040F25040C1F2000050F8210058B9FFE79D
:104E40004FF0500080F31188BFF36F8FBFF34F8F87
:104E50000490FFE7FEE7019800EB800140F250402C
:104E6000C1F2000000EB81000090009948684068A2
:104E70004860009948680831884205D1FFE70099E9
:104E8000486840684860FFE700984068C06840F2A2
:104E90004041C1F200010860FFE705B07047000023
:104EA00080B588B04EF60050CEF2000000684CF29B
:104EB0007121C4F20F1188420BD1FFE74FF050006F
:104EC00080F31188BFF36F8FBFF34F8F0490FFE71C
:104ED000FEE74EF60050CEF2000000684CF2702162
:104EE000C4F20F1188420BD1FFE74FF0500080F35E
:104EF0001188BFF36F8FBFF34F8F0590FFE7FEE779
:104F00004EF20040CEF20000029001780391FF21A2
:104F1000017000788DF807009DF8070000F0500040
:104F200040F2B441C1F20001087040F2B841C1F250
:104F3000000107200860FFE79DF807000006002831
:104F40000DD5FFE740F2B841C1F200010868013811
:104F500008609DF8070040008DF80700ECE740F27C
:104F6000B840C1F20000006803280BD0FFE74FF003
:104F7000500080F31188BFF36F8FBFF34F8F0690FF
:104F8000FFE7FEE740F2B840C1F2000000680328E6
:104F90000BD0FFE74FF0500080F31188BFF36F8F05
:104FA000BFF34F8F0790FFE7FEE740F2B841C1F231
:104FB0000001086800020860086800F4E06008600A
:104FC00003984EF20041CEF2000108704EF62051D7
:104FD000CEF20001086840F470000860086840F0F4
:104FE00070400860FFF74CFD40F24001C1F2000143
:104FF000002000900860FFF77FFC4EF63471CEF27F
:105000000001086840F040400860FFF7E3F9FFF74F
:10501000E7FEFFF711FA009808B080BD80B584B0B4
:105020008DF80F0001200190002100919DF80F20C4
:1050300000F008F802900298FFF728F8029804B0F0
:1050400080BD000080B588B0069005918DF81320D2
:1050500000200390069880B3FFE706994FF0FF30D9
:10506000B0FBF1F00599884227D3FFE70698059930
:10507000484310F1510F20D8FFE70698059948439F
:10508000029002985030FFF755FA0390039890B1C0
:10509000FFE7039801900198503001900698059918
:1050A000019A9DF81330DDF80CC0EE46CEF800C032
:1050B000FFF702F800E0FFE70EE0039858B9FFE7BA
:1050C0004FF0500080F31188BFF36F8FBFF34F8F05
:1050D0000790FFE7FEE7FFE7039808B080BD0000F8
:1050E00080B586B003900291012001900398009052
:1050F000009858B9FFE74FF0500080F31188BFF3D4
:105100006F8FBFF34F8F0490FFE7FEE700980028F2
:1051100056D0FFE70098C06B002851D0FFE70098F9
:10512000C26B016C4FF0FF30B0FBF2F0884247D306
:10513000FFE7FFF7EBFB00990B68C86B0A6C00FBFD
:1051400002308860009900208863009908684860F0
:1051500000990B68C86B0A6C013800FB0230C8600C
:105160000099FF2081F84400009981F845000298D9
:10517000D0B9FFE700980069A0B1FFE700981030B0
:1051800000F056FD60B1FFE74EF60451CEF200018B
:105190004FF080500860BFF34F8FBFF36F8F00E078
:1051A000FFE700E0FFE708E000981030FFF74EFB54
:1051B00000982430FFF74AFBFFE7FFF7D3FB02E03C
:1051C00000200190FFE7019858B9FFE74FF0500029
:1051D00080F31188BFF36F8FBFF34F8F0590FFE708
:1051E000FEE7019806B080BD80B590B00B900A91A3
:1051F00009920893002007900B980390039858B9E0
:10520000FFE74FF0500080F31188BFF36F8FBFF3BB
:105210004F8F0D90FFE7FEE70A990020029039B901
:10522000FFE70398006C002818BF01200290FFE7F9
:105230000298C00758B1FFE74FF0500080F3118883
:10524000BFF36F8FBFF34F8F0E90FFE7FEE7089914
:1052500000200229019007D1FFE70398C06B0138B5
:1052600018BF01200190FFE70198C00758B1FFE780
:105270004FF0500080F31188BFF36F8FBFF34F8F53
:105280000F90FFE7FEE7FFE7FFF740FB0398806B17
:105290000399C96B884204D3FFE70898022834D1E8
:1052A000FFE703980A99089AFEF7F0FD0690039825
:1052B000406AA0B1FFE70398243000F0B9FC60B168
:1052C000FFE74EF60451CEF200014FF08050086027
:1052D000BFF34F8FBFF36F8F00E0FFE710E006983A
:1052E00060B1FFE74EF60451CEF200014FF080505E
:1052F0000860BFF34F8FBFF36F8F00E0FFE7FFE75A
:10530000FFF730FB01200C9065E0099828B9FFE712
:10531000FFF728FB00200C905DE0079830B9FFE70D
:1053200004A8FFF707FC0120079000E0FFE7FFE774
:10533000FFE7FFF717FBFFF74BFDFFF7E7FA0398CF
:1053400090F94400013028B9FFE70399002081F863
:105350004400FFE7039890F94500013028B9FFE7C2
:105360000399002081F84500FFE7FFF7FBFA04A846
:1053700009A900F01FF928BBFFE70398FFF712F80F
:10538000C8B1FFE7039810300999FFF7EDFB0398C8
:10539000FFF778F800F012FD60B9FFE74EF6045110
:1053A000CEF200014FF080500860BFF34F8FBFF383
:1053B0006F8FFFE705E00398FFF764F800F0FEFC4D
:1053C000FFE707E00398FFF75DF800F0F7FC002027
:1053D0000C9000E058E70C9810B080BD80B58CB000
:1053E0000890079100200690089903910290039875
:1053F00058B9FFE74FF0500080F31188BFF36F8F6B
:10540000BFF34F8F0A90FFE7FEE70398006C58B197
:10541000FFE74FF0500080F31188BFF36F8FBFF3A9
:105420004F8F0B90FFE7FEE7FFE7FFF76FFA039858
:10543000806B0190019860B3FFE7019801380399F0
:1054400088630398006828B9FFE7FFF77DF903999F
:10545000886000E0FFE703980069A0B1FFE70398C8
:10546000103000F0E5FB60B1FFE74EF60451CEF2DC
:1054700000014FF080500860BFF34F8FBFF36F8F74
:1054800000E0FFE700E0FFE7FFF76CFA012009907A
:105490008DE0079828B9FFE7FFF764FA002009902C
:1054A00085E0069830B9FFE704A8FFF743FB012029
:1054B000069000E0FFE7FFE7FFE7FFF753FAFFF78B
:1054C00087FCFFF723FA039890F94400013028B9CC
:1054D000FFE70399002081F84400FFE7039890F963
:1054E0004500013028B9FFE70399002081F8450005
:1054F000FFE7FFF737FA04A807A900F05BF8A8BB9D
:10550000FFE70398FEF73AFF48B3FFE70398006808
:1055100050B9FFE7FFF7FAF90398806800F0DAFA6C
:105520000290FFF71FFA00E0FFE703982430079985
:10553000FFF71AFB0398FEF7A5FF00F03FFC60B9E8
:10554000FFE74EF60451CEF200014FF080500860A4
:10555000BFF34F8FBFF36F8F00E0FFE705E00398C5
:10556000FEF790FF00F02AFCFFE71FE00398FEF72C
:1055700089FF00F023FC0398FEF700FFA0B1FFE7CE
:10558000029870B1FFE7FFF7C1F90398FEF7F0FC4E
:105590000090039880680099FFF708FBFFF7E2F995
:1055A000FFE70020099002E0FFE7FFE73DE70998E9
:1055B0000CB080BD80B588B005900491059858B9AD
:1055C000FFE74FF0500080F31188BFF36F8FBFF3F8
:1055D0004F8F0690FFE7FEE7049858B9FFE74FF0BA
:1055E000500080F31188BFF36F8FBFF34F8F079088
:1055F000FFE7FEE7FFF78AF940F26C50C1F20000C6
:1056000000680290029805994968401A0190049830
:105610000068013018B9FFE7002003902EE040F247
:105620001450C1F2000000680599096888420CD046
:10563000FFE7029805994968884206D3FFE70120F1
:10564000039004990020086017E001980499096804
:1056500088420BD2FFE7019A04990868801A086013
:105660000598FFF767FA0020039005E004990020F1
:10567000086001200390FFE7FFE7FFE7FFF772F9FB
:10568000039808B080BD000070B58CB0DDF844C050
:10569000DDF840C00B900A91ADF826200893BDF8C4
:1056A00026008000FEF746FF05900598A0B1FFE7B1
:1056B0005C20FEF73FFF0790079840B1FFE707988F
:1056C0005C21FAF7ACFF05980799086303E0059899
:1056D000FFF76EF9FFE702E000200790FFE7079869
:1056E000D8B1FFE70B980A99BDF82620089BDDF892
:1056F00040C0119C079DEE460026CEF80C60CEF807
:105700000850CEF80440CEF800C0FEF7F9FC079828
:10571000FEF7E4FA0120069003E04FF0FF30069018
:10572000FFE706980CB070BD81B040F26C50C1F23A
:10573000000000680090009801B0704780B58AB002
:105740000020069040F2C840C1F200000068002826
:1057500040F01981FFE740F26C51C1F20001086886
:105760000130059005980860059858BBFFE740F2A6
:105770004440C1F200000068006858B1FFE74FF0F4
:10578000500080F31188BFF36F8FBFF34F8F0990E4
:10579000FFE7FEE740F24442C1F2000210680490C5
:1057A00040F24C41C1F200010868106004980860A2
:1057B00040F21451C1F20001086801300860FEF7A0
:1057C0001DFE00E0FFE7059840F21051C1F2000114
:1057D00009688842C0F0B680FFE7FFE740F2444026
:1057E000C1F200000068006840B9FFE740F21051C4
:1057F000C1F200014FF0FF300860A2E040F24440E7
:10580000C1F200000068C068C0680890089840684D
:10581000079005980799884207D2FFE7079840F25A
:105820001051C1F2000108608BE0FFE70898406961
:10583000039008988168C068886008998868C9687A
:1058400048600398406808990431884205D1FFE711
:105850000898C06803994860FFE7089900204861EC
:1058600003990868013808600898806AF8B1FFE772
:105870000898806A02900898C169006A886008994F
:10588000C869096A486002984068089918318842D6
:1058900005D1FFE70898006A02994860FFE7089978
:1058A00000208862029908680138086000E0FFE77C
:1058B0000898C16A012000FA01F240F2D041C1F219
:1058C00000010868104308600898C06A00EB800077
:1058D00040F25041C1F2000101EB800040680190AC
:1058E0000198089A906001988068089AD06008989A
:1058F0000430019A9268506008980430019A9060D0
:10590000089AD06A00EB800001EB80005061089893
:10591000C06A00EB800251F82200013041F82200F9
:105920000898C06A40F24041C1F200010968C96AA2
:10593000884203D9FFE70120069000E0FFE7FFE778
:105940004CE7FFE740F24040C1F200000068C06A47
:1059500000EB800140F25040C1F2000050F82100FD
:10596000022803D3FFE70120069000E0FFE740F2A2
:105970007050C1F20000006818B1FFE701200690E6
:1059800000E0FFE707E040F22051C1F200010868A3
:1059900001300860FFE706980AB080BD80B586B088
:1059A000039003980290002001900398002800F0D3
:1059B0008D80FFE7029840F24041C1F20001096882
:1059C00088420BD0FFE74FF0500080F31188BFF3FF
:1059D0006F8FBFF34F8F0490FFE7FEE70298006DD3
:1059E00058B9FFE74FF0500080F31188BFF36F8F75
:1059F000BFF34F8F0590FFE7FEE70299086D01386E
:105A000008650299C86AC96C88425DD0FFE70298B0
:105A1000006D002856D1FFE702980430FEF7F2FE31
:105A200068B9FFE70298C16A012000FA01F240F26A
:105A3000D041C1F2000108689043086000E0FFE730
:105A40000299C86CC8620299C86AC0F105008861F1
:105A50000298C16A012000FA01F340F2D042C1F27B
:105A600000021168194311600299C96A01EB8101B2
:105A700040F25042C1F2000202EB810149680091FC
:105A80000099029B996000998968029BD9600299EC
:105A90000431009B9B68596002990431009B996016
:105AA000029BD96A01EB810102EB810159610299E4
:105AB000C96A01EB810352F82310013142F8231027
:105AC000019000E0FFE700E0FFE700E0FFE701985A
:105AD00006B080BD80B584B003900398029000208A
